#
# Midiman USB MidiSport 1x1
# Firmware Release 1.21
# (c) 2000-2001, Midiman Inc.
# All rights reserved.
#
:1001000020202020202020202020202020202020EF
:1001100020202020202020202020202020202020DF
:100120004D6964696D616E20555342204D69646963
:1001300053706F72742031783120202020202020CD
:100140004669726D776172652052656C6561736591
:1001500020312E323120202020202020202020205D
:1001600028632920323030302D323030312C204D70
:100170006964696D616E20496E632E202020202005
:10018000416C6C2072696768747320726573657264
:100190007665642E20202020202020202020202072
:1001A000202020202020202020202020202020204F
:1001B000202020202020202020202020202020203F
:0308B200011C0026
:10040D00C201C200C204C2031209E1D2E843D820DE
:10041D00907FAB74FFF0907FA9F0907FAAF053917D
:10042D00EF907F95E044C0F0907FAFE04401F090F5
:10043D007FAEE0441DF0907F92E04402F0907F95F6
:10044D00E04401F0907F9EE054FEF0907F95E044F3
:10045D0002F0907F9EE04402F0907F95E05483F08F
:10046D00907F9EE0447CF0907F94E054FEF0907F6E
:10047D009DE04401F0907F9AE04401907F97F04316
:10048D0021204321404321105389F0E4F58CF58A56
:10049D00D28CD2A9120BAED2AFE589540F2420F520
:1004AD0089758DFE758BFED28EC2AC759850C29833
:1004BD00C299D2AC5321DF5321BF5321EF907F9AC4
:1004CD00E054FE907F97F0907F98E521F075243DE4
:1004DD00E52470FC432120432140432110907F9857
:1004ED00E521F020013C7524F4E52460033001F989
:1004FD007524F4E52460033001F97524F4E52460D6
:10050D00033001F97524F4E52460033001F97524F5
:10051D00F4E52460033001F92001C8D206120AE087
:10052D0080C130010C1201FFC201907FAEE0440288
:10053D00F030041A120B915013120B052003079083
:10054D007FD6E020E7F3120B26120BB2C204051C76
:10055D00E51CC394064003E4F51CE51C75F003A4EB
:0E056D00240AF808E6FA08E6F912071180B42D
:01057B00225D
:03003300020BAA13
:040BAA0053D8EF32FB
:03002300020717BA
:10071700C0E0C083C082C085C084C086758600C023
:0C072700D075D000C000C005C006C0079F
:10073300309923C299E568601BAF67056774002F82
:10074300F582E4340FF583E0F59915685321BF75FD
:10075300230C8002D20230981EC298AF99E566043A
:10076300543FFE6565600AAD6674252DF8A6078EB5
:07077300665321DF75220C23
:10077A00D007D006D005D000D0D0D086D084D0857E
:07078A00D082D083D0E032E1
:100A1700A2AC9206C2AC30020CC2028F995321BF1E
:100A270075230C8012AE69056974002EF582E434D3
:0B0A37000FF583EFF00568A20692ACFB
:010A42002291
:1001C000120100010000004063071110210100002E
:1001D000000109022700010100A00009040000033A
:1001E000FF000000070581032000010705820220AF
:0F01F000000007050202200000040309040000BC
:1008B500012400C1010122000121FF012300C182A1
:0F08C5000165000166000167000169000168001C
:03004300020900AF
:10090000020A6D0002080300020A4300020A940072
:10091000020ABB00020BBE00020BBF00020BC000AC
:10092000020BC100020BC200020BC300020BC40089
:10093000020BC500020BC600020BC700020BC80069
:10094000020BC900020BCA00020BCB00020BCC0049
:08095000020BCD00020BCE00EA
:1008D400120AFF0791FF0608FF0958FF0791FF0658
:0A08E40008FF0B570108FF0109008F
:10079100907FB6E020E16A7A7E79807E7E7F8074E8
:1007A1007E907FE3F07480907FE4F0E4FFE566657E
:1007B100656043EFC39408503DE4FDE566656560FF
:1007C1001BEDC39403501574252565F8E6907FE56C
:1007D100F00565E565543FF5650D80DFED60CEFE02
:1007E100EEC394035008E4907FE5F00E80F2907F11
:1007F100E5EDF00F80B7EF600825E025E0907FB7C9
:01080100F006
:0108020022D3
:10095800E508601614602A80001208FDEF6509603A
:10096800361208FD8F09E4F50822E5226010D52229
:100978000DA2AF9206C2AF432120A20692AF05088E
:1009880022E5236010D5230DA2AF9206C2AF432102
:0709980040A20692AF050822
:01099F002235
:100B5700A2AF9206C2AF907F98E521F0A20692AFAE
:010B6700226B
:10060800907FC8E030E103020692907FC9E0F56A66
:10061800C3E49568FF74019400FEC3E56A9FE49EF5
:100628005068E4F56BE56BC3956A505974C3256B44
:10063800F582E4347DF583E0540FFD604874C025ED
:100648006BF582E4347D907FE3F074C0256BF5820E
:10065800E4347DE582907FE4F0AF05ED1460161474
:10066800600B147018907FE5E0FF120A17907FE581
:10067800E0FF120A17907FE5E0FF120A17740425BD
:0A0688006BF56B80A0E4907FC9F0D1
:010692002245
:0308EE00011D00E9
:03000B00020B8461
:0D0B8400C0E0051DE52460021524D0E0321C
:0308FD00AF1D220A
:040BAE00E4F51D222B
:0B08F100017201017301C18501740256
:1001FF00907FE9E070030202D414700302034F24CE
:10020F00FE70030203A824FB70030202CE147003D6
:10021F000202C81470030202BC1470030202C2244B
:10022F000560030203FA120BB44003020405907F2A
:10023F00EBE024FE601614603F2402706774019097
:10024F007FD4F074C0907FD5F0020405907FEAE070
:10025F00FF1208638B6A8A6B896CEA496011AE02E0
:10026F00EE907FD4F0AF01EF907FD5F002040590B0
:10027F007FC47401F0020405907FEAE0FF1209A029
:10028F008B6A8A6B896CEA496011AE02EE907FD45B
:10029F00F0AF01EF907FD5F0020405907FC4740199
:1002AF00F0020405907FC47401F0020405120B766E
:1002BF00020405120BA2020405120B9A0204051286
:1002CF000B68020405120BB64003020405907FE889
:1002DF00E0247F60241460312402705BA203E433B6
:1002EF00FF25E0FFA200E4334F907F00F0E4A3F07E
:1002FF00907FB57402F0020405E4907F00F0A3F044
:10030F00907FB57402F0020405907FECE0F4548006
:10031F00FFC4540FFFE054072F25E024B4F582E407
:10032F00347FF583E054FD907F00F0E4A3F0907FDD
:10033F00B57402F0020405907FC47401F002040545
:10034F00120BB84003020405907FE8E024FE601C06
:10035F0024026003020405907FEAE0B40105C203A2
:10036F00020405907FC47401F0020405907FEAE057
:10037F00701F907FECE0F45480FFC4540FFFE054E3
:10038F00072F25E024B4F582E4347FF583E4F08071
:10039F0065907FC47401F0805D120BBA5058907F46
:1003AF00E8E024FE60172402704C907FEAE0B4016D
:1003BF0004D2038041907FC47401F08039907FEAAA
:1003CF00E07020907FECE0F45480FFC4540FFFE006
:1003DF0054072F25E024B4F582E4347FF5837401AC
:1003EF00F08013907FC47401F0800B120BBC500689
:0D03FF00907FC47401F0907FB4E04402F0E0
:01040C0022CD
:1009E100907FDE7406F0907FDF7404F0907FDD74F9
:1009F10018F0907FB67402F0907FB8F0907FBAF053
:100A0100907FBCF0907FBEF0907FC0F0907FC2F0ED
:060A1100E4907FC9F02211
:090B9100907FAFE04408F0D3228C
:020BB200D3224C
:020BB400D3224A
:080B9A00907FEAE0F576D3221A
:0E0B6800907F00E576F0907FB57401F0D32207
:080BA200907FEAE0F575D32213
:0E0B7600907F00E575F0907FB57401F0D322FA
:020BB600D32248
:020BB800D32246
:020BBA00D32244
:020BBC00D32242
:100A6D00C0E0C083C082C085C084C086758600D2B8
:100A7D00015391EF907FAB7401F0D086D084D08577
:070A8D00D082D083D0E032DB
:100A4300C0E0C083C082C085C084C0867586009024
:100A53007FC4E4F05391EF907FAB7404F0D086D061
:0A0A630084D085D082D083D0E03229
:10080300C0E0C083C082C085C084C086758600C036
:01081300D014
:100814005391EF907FAB7402F03005141572E572BA
:10082400702E432110C205C3741E9574F572802086
:10083400D5721D5321EFD205E5732574F574640256
:100844006005E574B41C06E573F404F573857472ED
:0F085400D0D0D086D084D085D082D083D0E0326F
:100ABB00C0E0C083C082C085C084C08675860053E9
:100ACB0091EF907FAB7410F0D086D084D085D0821C
:050ADB00D083D0E032E1
:010BBE003204
:100A9400C0E0C083C082C085C084C086758600D291
:100AA400045391EF907FAB7408F0D086D084D08546
:070AB400D082D083D0E032B4
:010BBF003203
:010BC0003202
:010BC1003201
:010BC2003200
:010BC30032FF
:010BC40032FE
:010BC50032FD
:010BC60032FC
:010BC70032FB
:010BC80032FA
:010BC90032F9
:010BCA0032F8
:010BCB0032F7
:010BCC0032F6
:010BCD0032F5
:010BCE0032F4
:100B2600907FD6E030E712E04401F07F147E001299
:0A0B36000B40907FD6E054FEF02241
:100B0500907FD6E04480F04387010000000000227A
:100AE000907FD6E054FBF0E04408F0300604E04488
:100AF00002F07FF47E01120B40907FD6E054F7F0B5
:050B0000E04404F022B6
:0209A0008F6D59
:1009A200E4F56E756FFF7570017571F9AB6FAA7022
:1009B200A9719000011206ACB4031DAF6E056EEF73
:1009C200B56D01221206937E0029FFEE3AA9077542
:0E09D2006FFFF570897180D47B007A00790088
:0109E00022F4
:10086300E4FE756FFF7570017571D2AB6FAA70A945
:10087300719000011206AC6402702DAD060EEDB549
:100883000701229000021206D985F06DF56E626DA4
:10089300E56D626EE56E626D29FDE56D3AA905753C
:0E08A3006FFFF570897180C37B007A007900C9
:0108B1002224
:100B40008E6A8F6BE56B156BAE6A7002156A4E602C
:070B500005120B1580EE22D7
:100B15007400F58690FDA57C05A3E582458370F9F3
:010B250022AD
:0300000002057C7A
:0C057C00787FE4F6D8FD7581760205C397
:10069300BB010689828A83E0225002E722BBFE0265
:0906A300E32289828A83E4932298
:1006AC00BB010CE58229F582E5833AF583E0225003
:1006BC0006E92582F8E622BBFE06E92582F8E2224D
:0D06CC00E58229F582E5833AF583E4932267
:1006D900BB0110E58229F582E5833AF583E0F5F05F
:1006E900A3E0225009E92582F886F008E622BBFE3C
:1006F9000AE92582F8E2F5F008E222E5832AF58382
:08070900E993F5F0A3E9932246
:060711008A838982E47373
:1005880002040DE493A3F8E493A34003F68001F278
:1005980008DFF48029E493A3F85407240CC8C33374
:1005A800C4540F4420C8834004F456800146F6DF43
:1005B800E4800B01020408102040809008B2E47E19
:1005C800019360BCA3FF543F30E509541FFEE49338
:1005D800A360010ECF54C025E060A840B8E493A3FF
:1005E800FAE493A3F8E493A3C8C582C8CAC583CA2A
:1005F800F0A3C8C582C8CAC583CADFE9DEE780BEE2
:0108FC0000FB
:00000001FF
