#
# Midiman USB MidiSport 2x2
# Firmware Release 1.21
# (c) 1999-2001, Midiman Inc.
# All rights reserved.
#
:1001000020202020202020202020202020202020EF
:1001100020202020202020202020202020202020DF
:100120004D6964696D616E20555342204D69646963
:1001300053706F72742032783220202020202020CB
:100140004669726D776172652052656C6561736591
:1001500020312E323120202020202020202020205D
:1001600028632920313939392D323030312C204D56
:100170006964696D616E20496E632E202020202005
:10018000416C6C2072696768747320726573657264
:100190007665642E20202020202020202020202072
:1001A000202020202020202020202020202020204F
:1001B000202020202020202020202020202020203F
:0309620001400051
:10041B00C201C200C205C204120ABAD2E843D820F4
:10042B00907FAB74FFF0907FA9F0907FAAF053916F
:10043B00EF907F95E044C0F0907FAFE04401F090E7
:10044B007FAEE0441DF0907F92E04402F0907F94E9
:10045B00E04404F0907F9DE054FBF0907F95E044E6
:10046B0001F0907F9EE054FEF0907F94E04408F002
:10047B00907F9DE04408F0907F95E04402F0907FE0
:10048B009EE04402F0907F95E05483F0907F9EE0D5
:10049B00447CF0907F94E054FEF0907F9DE044010B
:1004AB00F0907F9AE04401907F97F0430820430837
:1004BB00084308104308044308405389F0E4F58CC3
:1004CB00F58AD28CD2A9120036D2AFE589540F240B
:1004DB0020F589758DFE758BFED28EC2AC7598504A
:1004EB00C298C299D2ACC2AE75C050C2C0C2C1D202
:1004FB00AE5308DF5308EF5308F75308FB5308BFFD
:10050B00907F9AE054FE907F97F0907F98E508F0EB
:10051B00750D3DE50D70FC4308204308104308089A
:10052B00430804430840907F98E508F020011175BB
:10053B000DF4E50D70FC2001F3D207120C2180ECB9
:10054B0030010C12020DC201907FAEE04402F0307C
:10055B00051A120AF45013120C46200407907FD68A
:10056B00E020E7F3120C67120041C2050540E5409D
:10057B00C394084003E4F540E54075F003A424233D
:0C058B00F808E6FA08E6F91207EC80B464
:010597002241
:0300330002001FA9
:04001F0053D8EF3291
:0300230002086E62
:10086E00C0E0C083C082C085C084C086758600C0CB
:0C087E00D075D000C000C005C006C00747
:10088A00309923C299E514601BAF11051174002F2A
:10089A00F582E4340EF583E0F59915145308EF75E3
:1008AA000B0C8002D20230981EC298AF99E5100450
:1008BA00543FFE650E600AAD1074422DF8A6078EED
:0708CA00105308DF75090C53
:1008D100D007D006D005D000D0D0D086D084D08526
:0708E100D082D083D0E03289
:03003B000208E8D0
:1008E800C0E0C083C082C085C084C086758600C051
:0C08F800D075D000C000C005C006C007CD
:1009040030C123C2C1E515601BAF13051374002F5A
:10091400F582E4340FF583E0F5C115155308FB7532
:100924000C0C8002D20330C01EC2C0AFC1E5120459
:10093400543FFE650F600AAD1274822DF8A6078E2F
:07094400125308F7750A0CBD
:10094B00D007D006D005D000D0D0D086D084D085AB
:07095B00D082D083D0E0320E
:1000D200A2AC9207C2AC30020CC2028F995308EF55
:1000E200750B0C8012AE16051674002EF582E434E0
:0B00F2000EF583EFF00514A20792AC9E
:0100FD0022E0
:100B5800A2AE9207C2AE30030CC2038FC15308FB8A
:100B6800750C0C8012AE17051774002EF582E4344C
:0B0B78000FF583EFF00515A20792AE09
:010B8300224F
:1001C000120100010000004063070210210100003D
:1001D000000109023500010100A00009040000052A
:1001E000FF000000070581032000010705820220AF
:1001F000000007050202200000070584022000001D
:0D02000007050402200000040309040000AB
:10096500010D00C101010900010A000108FF010B89
:1009750000010C00C182C183010E00011000010FAE
:1009850000011200011100011600011400011300FD
:060995000117000115002E
:03004300020B00AD
:100B0000020BAE000209CA00020B8400020BD500E2
:100B1000020BFC0002003A00020AFF00020CC200B5
:100B2000020CC300020CC400020CC500020CC6007B
:100B3000020CC700020CC800020CC900020CCA005B
:100B4000020CCB00020CCC00020CCD00020CCE003B
:080B5000020CCF00020CD000E2
:10099B001823FF0598FF0658FF06E3FF07F2FF0534
:1009AB0098FF0658FF06E3FF000E0121FF0122000E
:10059800907FB6E030E1030206577A7E79807E7E4E
:1005A8007F80747E907FE3F07480907FE4F0E4FFB6
:1005B800E510650E6043EFC39404503DE4FDE5107B
:1005C800650E601BEDC3940350157442250EF8E6C2
:1005D800907FE5F0050EE50E543FF50E0D80DFED3A
:1005E80060CEFCECC394035008E4907FE5F00C80E7
:1005F800F2907FE5EDF00F80B7E512650F6045EFEB
:10060800C39408503FE4FDE512650F601BEDC394E9
:100618000350157482250FF8E6907FE5F0050FE585
:100628000F543FF50F0D80DFED60CEFCECC3940353
:100638005008E4907FE5F00C80F2ED2410907FE5FF
:0F064800F00F80B5EF600825E025E0907FB7F058
:010657002280
:1007F200E521601C146030146044146058800012BB
:10080200003EEF6522606412003E8F22E4F5212251
:10081200E5096010D5090DA2AF9207C2AF430820C7
:10082200A20792AF052122E50A6010D50A0DA2AFF8
:100832009207C2AF430808A20792AF052122E50B37
:100842006010D50B0DA2AF9207C2AF430810A207EA
:1008520092AF052122E50C6010D50C0DA2AF9207D4
:0B086200C2AF430804A20792AF0521BB
:01086D002268
:10000E00A2AF9207C2AF907F98E508F0A20792AF19
:01001E0022BF
:10065800907FC8E030E1030206E2907FC9E0F51818
:10066800C3E49514FF74019400FEC3E5189FE49E4B
:100678005068E4F519E519C39518505974C325193C
:10068800F582E4347DF583E0540FFD604874C0259D
:1006980019F582E4347D907FE3F074C02519F58262
:1006A800E4347DE582907FE4F0AF05ED1460161424
:1006B800600B147018907FE5E0FF1200D2907FE580
:1006C800E0FF1200D2907FE5E0FF1200D27404250B
:0A06D80019F51980A0E4907FC9F025
:0106E20022F5
:1006E300907FCCE030E10302076D907FCDE0F518F9
:1006F300C3E49515FF74019400FEC3E5189FE49EBF
:100703005068E4F519E519C39518505974C32519B0
:10071300F582E4347CF583E0540FFD604874C02512
:1007230019F582E4347C907FE3F074C02519F582D7
:10073300E4347CE582907FE4F0AF05ED1460161499
:10074300600B147018907FE5E0FF120B58907FE563
:10075300E0FF120B58907FE5E0FF120B587404255D
:0A07630019F51980A0E4907FCDF095
:01076D002269
:0309BB00014100F7
:03000B00020026CA
:0D002600C0E00541E50D6002150DD0E0328F
:03003E00AF4122AD
:04003600E4F541228A
:0B09BE00013B01013C01C186013D032B
:10020D00907FE9E070030202E214700302035D24A3
:10021D00FE70030203B624FB70030202DC147003AC
:10022D000202D61470030202CA1470030202D02413
:10023D000560030204081200FE4003020413907FC0
:10024D00EBE024FE601614603F2402706774019089
:10025D007FD4F074C0907FD5F0020413907FEAE054
:10026D00FF120A2A8B188A19891AEA496011AE02FF
:10027D00EE907FD4F0AF01EF907FD5F00204139094
:10028D007FC47401F0020413907FEAE0FF120A7933
:10029D008B188A19891AEA496011AE02EE907FD443
:1002AD00F0AF01EF907FD5F0020413907FC474017D
:1002BD00F0020413907FC47401F0020413120CA613
:1002CD00020413120CB402041312000302041312DD
:1002DD000C98020413120AFD4003020413907FE8E8
:1002ED00E0247F60241460312402705BA204E433A7
:1002FD00FF25E0FFA200E4334F907F00F0E4A3F070
:10030D00907FB57402F0020413E4907F00F0A3F027
:10031D00907FB57402F0020413907FECE0F45480EA
:10032D00FFC4540FFFE054072F25E024B4F582E4F9
:10033D00347FF583E054FD907F00F0E4A3F0907FCF
:10034D00B57402F0020413907FC47401F00204131B
:10035D00120CBC4003020413907FE8E024FE601CE5
:10036D0024026003020413907FEAE0B40105C20485
:10037D00020413907FC47401F0020413907FEAE02D
:10038D00701F907FECE0F45480FFC4540FFFE054D5
:10039D00072F25E024B4F582E4347FF583E4F08063
:1003AD0065907FC47401F0805D120CBE5058907F33
:1003BD00E8E024FE60172402704C907FEAE0B4015F
:1003CD0004D2048041907FC47401F08039907FEA9B
:1003DD00E07020907FECE0F45480FFC4540FFFE0F8
:1003ED0054072F25E024B4F582E4347FF58374019E
:1003FD00F08013907FC47401F0800B120CC0500676
:0D040D00907FC47401F0907FB4E04402F0D1
:01041A0022BF
:100ABA00907FDE7416F0907FDF7414F0907FDD74FF
:100ACA0018F0907FB67402F0907FB8F0907FBAF079
:100ADA00907FBCF0907FBEF0907FC0F0907FC2F014
:0A0AEA00E4907FC9F0907FCDF02268
:090AF400907FAFE04408F0D3222A
:02004100D322C8
:0200FE00D3220B
:08000300907FEAE0F53FD322F3
:0E0C9800907F00E53FF0907FB57401F0D3220D
:080CB400907FEAE0F53ED32237
:0E0CA600907F00E53EF0907FB57401F0D32200
:020AFD00D32202
:020CBC00D32241
:020CBE00D3223F
:020CC000D3223D
:100BAE00C0E0C083C082C085C084C086758600D276
:100BBE00015391EF907FAB7401F0D086D084D08535
:070BCE00D082D083D0E03299
:100B8400C0E0C083C082C085C084C08675860090E2
:100B94007FC4E4F05391EF907FAB7404F0D086D01F
:0A0BA40084D085D082D083D0E032E7
:1009CA00C0E0C083C082C085C084C086758600C06E
:0109DA00D04C
:1009DB005391EF907FAB7402F0300614153BE53B5F
:1009EB00702E430840C206C3741E953DF53B802014
:1009FB00D53B1D5308BFD206E53C253DF53D6403B1
:100A0B006005E53DB41C06E53CF404F53C853D3B37
:0F0A1B00D0D0D086D084D085D082D083D0E032A6
:100BFC00C0E0C083C082C085C084C08675860053A7
:100C0C0091EF907FAB7410F0D086D084D085D082D9
:050C1C00D083D0E0329E
:01003A003293
:100BD500C0E0C083C082C085C084C086758600D24F
:100BE500055391EF907FAB7408F0D086D084D08503
:070BF500D082D083D0E03272
:010AFF0032C4
:010CC20032FF
:010CC30032FE
:010CC40032FD
:010CC50032FC
:010CC60032FB
:010CC70032FA
:010CC80032F9
:010CC90032F8
:010CCA0032F7
:010CCB0032F6
:010CCC0032F5
:010CCD0032F4
:010CCE0032F3
:010CCF0032F2
:010CD00032F1
:100C6700907FD6E030E712E04401F07F147E001257
:0A0C77000C81907FD6E054FEF022BD
:100C4600907FD6E04480F043870100000000002238
:100C2100907FD6E054FBF0E04408F0300704E04444
:100C310002F07FF47E01120C81907FD6E054F7F030
:050C4100E04404F02274
:020A79008F1BD1
:100A7B00E4F51C751DFF751E02751F07AB1DAA1E25
:100A8B00A91F900001120787B4031DAF1C051CEFB3
:100A9B00B51B012212076E7E0029FFEE3AA90775DE
:0E0AAB001DFFF51E891F80D47B007A007900A4
:010AB900221A
:100A2A00E4FE751DFF751E01751FD2AB1DAA1EA916
:100A3A001F9000011207876402702DAD060EEDB5F6
:100A4A000701229000021207B485F01BF51C621BF5
:100A5A00E51B621CE51C621B29FDE51B3AA905750D
:0E0A6A001DFFF51E891F80C37B007A007900F6
:010A7800225B
:100C81008E188F19E5191519AE18700215184E60D6
:070C910005120C5680EE2253
:100C56007400F58690FDA57C05A3E582458370F9B1
:010C6600226B
:03000000020046B5
:0C004600787FE4F6D8FD7581C102008DC2
:10076E00BB010689828A83E0225002E722BBFE0289
:09077E00E32289828A83E49322BC
:10078700BB010CE58229F582E5833AF583E0225027
:1007970006E92582F8E622BBFE06E92582F8E22271
:0D07A700E58229F582E5833AF583E493228B
:1007B400BB0110E58229F582E5833AF583E0F5F083
:1007C400A3E0225009E92582F886F008E622BBFE60
:1007D4000AE92582F8E2F5F008E222E5832AF583A6
:0807E400E993F5F0A3E993226B
:0607EC008A838982E47398
:1000520002041BE493A3F8E493A34003F68001F2A5
:1000620008DFF48029E493A3F85407240CC8C333AF
:10007200C4540F4420C8834004F456800146F6DF7E
:10008200E4800B0102040810204080900962E47EA3
:10009200019360BCA3FF543F30E509541FFEE49373
:1000A200A360010ECF54C025E060A840B8E493A33A
:1000B200FAE493A3F8E493A3C8C582C8CAC583CA65
:1000C200F0A3C8C582C8CAC583CADFE9DEE780BE1D
:0109C900002D
:00000001FF
