#
# Midiman USB MidiSport 8x8
# Firmware Release 2.21
# Copyright (c) 2000-2002 Midiman Inc.
#
:100315000178FF017900413C5500017A03413C56C3
:0C03250000413C5703017B00413C5D009F
:1004F500121008E4F53DE53D60031243E8123A2287
:10050500AF631263E9124AC2E4F53DE53D600312AB
:1005150053B1AF71EF1460111460131460151460BA
:100525001714601980007571011201C080121260E4
:10053500FE800D1260198008124784800312562729
:10054500AF631263E9124AC290AC0074FFF090A841
:1005550000F012618AE4F53DE53DC3940850B3AF60
:090565003D1269DF053D80F02222
:030023000257364B
:03003B00021B4065
:10017000120100010000004063073310210200005B
:10018000000109023500010100A005090400000575
:10019000FF000000070582034000010705840220DC
:1001A000000007050202400000070586022000004B
:0D01B00007050402200000040309040000FC
:10033100C103017100014310014610014A10014E31
:1003410010015110015510015910015E1001630097
:10035100018C000180000164FF018A00018B000112
:0B0361003500013600013700013800B4
:05036C00C10E017C0040
:10010000202A2A2A204D6964696D616E2055534268
:10011000204D69646953706F727420387838202AD2
:100120002A2A204669726D776172652052656C6576
:1001300061736520322E3231202A2A2A20436F70C3
:100140007972696768742028632920323030302D35
:1001500032303032204D6964696D616E20496E63C2
:060160002E202A2A2A20AD
:09037100019300019400019500C4
:10037A00413C60FFC109C10A01767F01747FC1084F
:09038A0001757F01770101730088
:08039300018D00038EFF66A43A
:03039B00017E00E0
:03000B000269ED9A
:10039E000196FF010B00010C7D010DC00111000142
:0903AE00127C0113C0413C610006
:1001C00090A00074EFF012618AE4F570C200C207DB
:1001D000C206C20F753962E539600AE571B40105DE
:1001E0001269C180F2C20230020302028CE571641E
:1001F00001600302028C907FD6E054F7F07539F469
:1002000020020EE539600AE571B401051269C1806A
:10021000EF7539F420020EE539600AE571B4010585
:100220001269C180EF7539F420020EE539600AE5E4
:1002300071B401051269C180EF7539F420020EE531
:1002400039600AE571B401051269C180EF7539F4AE
:1002500020020EE539600AE571B401051269C1801A
:10026000EF200283E571640160030201E7907FD60D
:10027000E04408F075390CE53970030201E7E571D7
:10028000640160030201E71269C180EBE57164015A
:10029000706D200F6A30020FC2021241DE907FAEF5
:1002A000E04402F075700212093F120BB2120E0EFA
:1002B000125505789606E6B40700501C9002C3F864
:1002C0002828730202DC0202E10202E60202EB02CB
:1002D00002F00202F50202FAE47896F61245BC80BA
:1002E000AB1207B280A612682A80A11266C3809C56
:1002F0001248C080971229378092126841808D90F1
:0E0300007FAEE054FDF0907FD6E04408F0227E
:10093F00907FB8E030E103020BB1907FE3747EF05B
:10094F00E4907FE4F0F516123F668F15EFD3940015
:10095F00402A0516533B7F752304E515B4031D127A
:10096F003F668F15EFD3940040120516E515B403BB
:10097F000B123F66EFD3940040020516123FB58F5E
:10098F0015EFD39400402A0516533BBF752404E599
:10099F0015B4031D123FB58F15EFD3940040120508
:1009AF0016E515B4030B123FB5EFD39400400205C3
:1009BF00161240048F15EFD39400402A0516533BAF
:1009CF00DF752604E515B4031D1240048F15EFD310
:1009DF00940040120516E515B4030B124004EFD333
:1009EF009400400205161240538F15EFD394004028
:1009FF002A0516533BEF752804E515B4031D124065
:100A0F00538F15EFD3940040120516E515B4030B61
:100A1F00124053EFD394004002051612418F8F15E9
:100A2F00EFD39400402A0516533BFE753104E515AC
:100A3F00B4031D12418F8F15EFD39400401205168A
:100A4F00E515B4030B12418FEFD394004002051646
:100A5F00E51664107003020BA51240A28F15EFD399
:100A6F00940040390516533BF7752A04E5156403C6
:100A7F00702BE516C3941050241240A28F15EFD39C
:100A8F00940040190516E515B40312E516C394102A
:100A9F00500B1240A2EFD3940040020516E51664E6
:100AAF00107003020BA51240F18F15EFD394004085
:100ABF00390516533BFB752C04E5156403702BE5C4
:100ACF0016C3941050241240F18F15EFD3940040A9
:100ADF00190516E515B40312E516C39410500B1241
:100AEF0040F1EFD3940040020516E5166410700331
:100AFF00020BA51241408F15EFD394004039051614
:100B0F00533BFD752E04E5156403702BE516C39456
:100B1F001050241241408F15EFD394004019051641
:100B2F00E515B40312E516C39410500B124140EFB4
:100B3F00D3940040020516E516C394105058798AD5
:100B4F00E7788B66605005161269A1907FE5EFF08C
:100B5F00751501798AE7788B66601C1269A1907F01
:100B6F00E5EFF00515798AE7788B66600A1269A1BF
:100B7F00907FE5EFF00515E51524FE600C14600E6F
:100B8F0024027012E4907FE5F0E4907FE5F0E51524
:100B9F002480907FE5F0E516600825E025E0907F42
:030BAF00B9F02278
:100BB200E50B14602414603E146075240360030284
:100BC2000E0D907FC8E030E103020E0D907FC9E068
:100BD200FF1313543FF50A050BE50A7017F50B9046
:100BE2007FC9F07A7D79C07E7D7FC0747DF50C74FB
:100BF200C0F50D22050B907FE3E50CF0E50D240313
:100C0200907FE4F0907FE5E0F509540FF508701746
:100C1200F50B907FC9F07A7D79C07E7D7FC0747DAF
:100C2200F50C74C0F50D22E509C4540FF509050B46
:100C3200E509602A24FE7003020CBB24FE70030245
:100C42000D1624FE7003020D7124FE7003020DCCFA
:100C520080007404250DF50D150A750B0122E508B7
:100C6200D39543400D908005E020E503020E0D75FB
:100C72004310907FE3E50CF0907FE4E50DF0E5088A
:100C820014601A14600D147024907FE5E0908000C7
:100C9200F01543907FE5E0908000F01543907FE5EA
:100CA200E0908000F01543533C7F752504740425C1
:100CB2000DF50D150A750B0122E508D3954A400D75
:100CC200908805E020E503020E0D754A10907FE33F
:100CD200E50CF0907FE4E50DF0E50814601A14606D
:100CE2000D147024907FE5E0908800F0154A907F03
:100CF200E5E0908800F0154A907FE5E0908800F0EA
:100D0200154A533CDF7529047404250DF50D150AA7
:100D1200750B0122E508D39551400D909005E02016
:100D2200E503020E0D755110907FE3E50CF0907F04
:100D3200E4E50DF0E50814601A14600D14702490B7
:100D42007FE5E0909000F01551907FE5E0909000F3
:100D5200F01551907FE5E0909000F01551533CF76B
:100D6200752D047404250DF50D150A750B0122E588
:100D720008D39559400D909805E020E503020E0D29
:100D8200755910907FE3E50CF0907FE4E50DF0E5F6
:100D92000814601A14600D147024907FE5E0909896
:100DA20000F01559907FE5E0909800F01559907F7A
:100DB200E5E0909800F01559533CFD753204740437
:100DC200250DF50D150A750B0122E508D395645022
:100DD2003A907FE3E50CF0907FE4E50DF0E508142E
:100DE200601614600B147018907FE5E0FF12620A1F
:100DF200907FE5E0FF12620A907FE5E0FF12620A4F
:0C0E02007404250DF50D150A750B012276
:100E0E00E51114602414603414606124036003023D
:100E1E001007907FCCE030E103021007907FCDE009
:100E2E00FF1313543FF5100511E510700DF51190D9
:100E3E007FCDF075127C7513C0220511907FE3E50E
:100E4E0012F0E5132403907FE4F0907FE5E0F50FB8
:100E5E00540FF50E700DF511907FCDF075127C7557
:100E6E0013C022E50FC4540FF50F0511E50F1460E2
:100E7E002024FE607724FE7003020F5524FE7003BB
:100E8E00020FB0800074042513F5131510751101AF
:100E9E0022E50ED39546400D908405E020E5030231
:100EAE001007754610907FE3E512F0907FE4E5138E
:100EBE00F0E50E14601A14600D147024907FE5E0B6
:100ECE00908400F01546907FE5E0908400F0154682
:100EDE00907FE5E0908400F01546533CBF752704E3
:100EEE0074042513F513151075110122E50ED39513
:100EFE004E400D908C05E020E503021007754E1054
:100F0E00907FE3E512F0907FE4E513F0E50E1460B8
:100F1E001A14600D147024907FE5E0908C00F0158B
:100F2E004E907FE5E0908C00F0154E907FE5E090BE
:100F3E008C00F0154E533CEF752B0474042513F5FD
:100F4E0013151075110122E50ED39555400D909491
:100F5E0005E020E503021007755510907FE3E512BA
:100F6E00F0907FE4E513F0E50E14601A14600D1492
:100F7E007024907FE5E0909400F01555907FE5E0A9
:100F8E00909400F01555907FE5E0909400F0155583
:100F9E00533CFB75300474042513F51315107511AD
:100FAE000122E50ED3955E400A909C05E030E5499E
:100FBE00755E10907FE3E512F0907FE4E513F0E5A7
:100FCE000E14601A14600D147024907FE5E0909C4E
:100FDE0000F0155E907FE5E0909C00F0155E907F2E
:100FEE00E5E0909C00F0155E533CFE7533047404EE
:0A0FFE002513F513151075110122DB
:10078B00907FDE7404F0907FDF7414F0907FDD7443
:0C079B0018F0E4907FC9F0907FCDF022B0
:1007B200AF70EF146019146037800090A00074EFDE
:1007C200F0757001126A24EF2451903C61F02212FC
:1007D2006A24903C61E06F704790A000E06410F0E2
:1007E200126A24EF2451903C61F07889E6F51422D4
:1007F200126A24903C61E06F7026126A24EF245141
:10080200903C61F07889E6FFB51413907FAEE05416
:10081200FDF090A00074EFF0757001D20F228F14DA
:0108220022B3
:08075C00907FB4E04402F0229A
:0907A700907FAFE04408F0D3227A
:0207B000D32252
:0300330002075869
:0407580053D8EF3251
:02093500D322CB
:09092300907FEAE07898F6D322F7
:0F0905007898E6907F00F0907FB57401F0D322D0
:09092C00907FEAE07897F6D322EF
:0F0914007897E6907F00F0907FB57401F0D322C2
:02093700D322C9
:02093900D322C7
:02093B00D322C5
:02093D00D322C3
:0B03B700017F01019901C190019A0330
:1005E500C0E0C083C082C085C084C086758600C057
:1005F500D075D000C000C006C0075391EF907FAB07
:100605007402F0788906301018157FE57F703590F3
:10061500A00074FFF0C210C3741E789A96F57F800F
:1006250023D57F2090A00074EFF0D2107899E6FFD3
:100635000826F6FE64036004EEB41D06EFF40478A4
:1006450099F68E7FD007D006D000D0D0D086D08442
:09065500D085D082D083D0E032C0
:01056E00325A
:10076400C0E0C083C082C085C084C086758600D2C4
:10077400025391EF907FAB7401F0D086D084D08582
:07078400D082D083D0E032E7
:10059900C0E0C083C082C085C084C086758600D291
:1005A900075391EF907FAB7408F0D086D084D08543
:0705B900D082D083D0E032B4
:10056F00C0E0C083C082C085C084C08675860090FD
:10057F007FC4E4F05391EF907FAB7404F0D086D03A
:0A058F0084D085D082D083D0E03202
:1005C000C0E0C083C082C085C084C08675860053E9
:1005D00091EF907FAB7410F0D086D084D085D0821C
:0505E000D083D0E032E1
:010663003264
:010667003260
:01065E003269
:01065F003268
:010660003267
:010661003266
:010662003265
:010664003263
:010665003262
:010666003261
:01066800325F
:01066900325E
:01066A00325D
:01066B00325C
:01066C00325B
:01066D00325A
:03004300020700B1
:10070000020764000205E50002056F00020599007A
:100710000205C00002056E0002065E0002065F00D0
:100720000206600002066100020662000206630023
:100730000206640002066500020666000206670003
:10074000020668000206690002066A0002066B00E3
:0807500002066C0002066D00B8
:10100800538EF8907F96E04480F0E04440F0907F63
:1010180093740CF0907F9C74FCF0907F947401F0B2
:10102800907F9D74FAF0907F9574C0F0907F9E74C5
:10103800F2F0907F94E0440CF0907F9DE054FBF038
:10104800E04408F0907F95E04403F0907F9EE054E0
:10105800FEF0E04402F075B850907F92E04402F050
:101068005389F0E4F58CF58AD28CD2A9126A1DD284
:10107800AFE589540F2420F589758DFE758BFED256
:101088008EC2AC759850C298C299C2AE75C050C293
:10109800C0C2C1D2AE907FD6E04408F0E04404F06C
:1010A800E04402F012078BC2E853D8DF907FAE7499
:1010B8001DF0907FAB74FFF0907FA9F0907FAAF0AD
:1010C8005391EF907FAF7401F0C202D2E843D82069
:1010D8001260B4753BFF753CFFE47889F6D204D200
:1010E80005F525F523F527F524F529F526F52BF53E
:1010F80028F52DF52AF530F52CF532F52EF533F5D2
:051108003112618A2292
:1008D400907FD6E030E712E04401F07F147E0012EE
:0A08E40008EE907FD6E054FEF022EB
:1008B300907FD6E04480F0438701000000000022CF
:020872008F18DD
:10087400E4F519751AFF751B01751CB7AB1AAA1B91
:10088400A91C90000112048AB4031DAF190519EFC5
:10089400B51801221204717E0029FFEE3AA90775EA
:0E08A4001AFFF51B891C80D47B007A007900B6
:0108B2002223
:10082300E4FE751AFF751B01751C82AB1AAA1BA97E
:100833001C90000112048A6402702DAD060EEDB502
:100843000701229000021204B785F018F519621807
:10085300E5186219E519621829FDE5183AA9057525
:0E0863001AFFF51B891C80C37B007A00790008
:010871002264
:1008EE008E158F16E5161516AE15700215154E607F
:0708FE00051208C380EE2281
:1008C3007400F58690FDA57C05A3E582458370F948
:0108D3002202
:030000000203C335
:0C03C300787FE4F6D8FD75819A02040AE8
:10044F00C2D530F707B2D563F0FF05F030E70CB235
:10045F00D5F4048463F0FF05F080018430D502F4F5
:02046F00042265
:10047100BB010689828A83E0225002E722BBFE0289
:09048100E32289828A83E49322BC
:10048A00BB010CE58229F582E5833AF583E0225027
:10049A0006E92582F8E622BBFE06E92582F8E22271
:0D04AA00E58229F582E5833AF583E493228B
:1004B700BB0110E58229F582E5833AF583E0F5F083
:1004C700A3E0225009E92582F886F008E622BBFE60
:1004D7000AE92582F8E2F5F008E222E5832AF583A6
:0804E700E993F5F0A3E993226B
:0604EF008A838982E47398
:1003CF000204F5E493A3F8E493A34003F68001F24B
:1003DF0008DFF48029E493A3F85407240CC8C3332F
:1003EF00C4540F4420C8834004F456800146F6DFFE
:1003FF00E4800B0102040810204080900315E47E76
:10040F00019360BCA3FF543F30E509541FFEE493F2
:10041F00A360010ECF54C025E060A840B8E493A3B9
:10042F00FAE493A3F8E493A3C8C582C8CAC583CAE4
:10043F00F0A3C8C582C8CAC583CADFE9DEE780BE9C
:0103C200003A
:00000001FF
